{
  "_format": "hh-sol-artifact-1",
  "contractName": "EzSwapFactory",
  "sourceName": "contracts/EzSwapFactory.sol",
  "abi": [
    {
      "inputs": [
        {
          "internalType": "address",
          "name": "tokenA",
          "type": "address"
        },
        {
          "internalType": "address",
          "name": "tokenB",
          "type": "address"
        }
      ],
      "name": "IdenticalAddresses",
      "type": "error"
    },
    {
      "inputs": [],
      "name": "InvalidPair",
      "type": "error"
    },
    {
      "inputs": [
        {
          "internalType": "address",
          "name": "tokenA",
          "type": "address"
        },
        {
          "internalType": "address",
          "name": "tokenB",
          "type": "address"
        },
        {
          "internalType": "address",
          "name": "pair",
          "type": "address"
        }
      ],
      "name": "PairExists",
      "type": "error"
    },
    {
      "inputs": [],
      "name": "ZeroAddress",
      "type": "error"
    },
    {
      "anonymous": false,
      "inputs": [
        {
          "indexed": true,
          "internalType": "address",
          "name": "token0",
          "type": "address"
        },
        {
          "indexed": true,
          "internalType": "address",
          "name": "token1",
          "type": "address"
        },
        {
          "indexed": false,
          "internalType": "address",
          "name": "pair",
          "type": "address"
        }
      ],
      "name": "PairCreated",
      "type": "event"
    },
    {
      "inputs": [
        {
          "internalType": "uint256",
          "name": "",
          "type": "uint256"
        }
      ],
      "name": "allPairs",
      "outputs": [
        {
          "internalType": "address",
          "name": "",
          "type": "address"
        }
      ],
      "stateMutability": "view",
      "type": "function"
    },
    {
      "inputs": [],
      "name": "allPairsLength",
      "outputs": [
        {
          "internalType": "uint256",
          "name": "",
          "type": "uint256"
        }
      ],
      "stateMutability": "view",
      "type": "function"
    },
    {
      "inputs": [
        {
          "internalType": "address",
          "name": "tokenA",
          "type": "address"
        },
        {
          "internalType": "address",
          "name": "tokenB",
          "type": "address"
        }
      ],
      "name": "createPair",
      "outputs": [
        {
          "internalType": "address",
          "name": "pair",
          "type": "address"
        }
      ],
      "stateMutability": "nonpayable",
      "type": "function"
    },
    {
      "inputs": [
        {
          "internalType": "address",
          "name": "",
          "type": "address"
        },
        {
          "internalType": "address",
          "name": "",
          "type": "address"
        }
      ],
      "name": "getPair",
      "outputs": [
        {
          "internalType": "address",
          "name": "",
          "type": "address"
        }
      ],
      "stateMutability": "view",
      "type": "function"
    }
  ],
  "bytecode": "0x6080604052348015600f57600080fd5b506136758061001f6000396000f3fe608060405234801561001057600080fd5b506004361061004c5760003560e01c80631e3dd18b14610051578063574f2ba314610081578063c9c653961461009f578063e6a43905146100cf575b600080fd5b61006b60048036038101906100669190610867565b6100ff565b60405161007891906108d5565b60405180910390f35b61008961013e565b60405161009691906108ff565b60405180910390f35b6100b960048036038101906100b49190610946565b61014b565b6040516100c691906108d5565b60405180910390f35b6100e960048036038101906100e49190610946565b610792565b6040516100f691906108d5565b60405180910390f35b6001818154811061010f57600080fd5b906000526020600020016000915054906101000a900473ffffffffffffffffffffffffffffffffffffffff1681565b6000600180549050905090565b60008073ffffffffffffffffffffffffffffffffffffffff168373ffffffffffffffffffffffffffffffffffffffff1614806101b35750600073ffffffffffffffffffffffffffffffffffffffff168273ffffffffffffffffffffffffffffffffffffffff16145b156101ea576040517fd92e233d00000000000000000000000000000000000000000000000000000000815260040160405180910390fd5b8173ffffffffffffffffffffffffffffffffffffffff168373ffffffffffffffffffffffffffffffffffffffff160361025c5782826040517f7575c711000000000000000000000000000000000000000000000000000000008152600401610253929190610986565b60405180910390fd5b60008061026985856107d4565b91509150600073ffffffffffffffffffffffffffffffffffffffff166000808473ffffffffffffffffffffffffffffffffffffffff1673ffffffffffffffffffffffffffffffffffffffff16815260200190815260200160002060008373ffffffffffffffffffffffffffffffffffffffff1673ffffffffffffffffffffffffffffffffffffffff16815260200190815260200160002060009054906101000a900473ffffffffffffffffffffffffffffffffffffffff1673ffffffffffffffffffffffffffffffffffffffff16146104185781816000808573ffffffffffffffffffffffffffffffffffffffff1673ffffffffffffffffffffffffffffffffffffffff16815260200190815260200160002060008473ffffffffffffffffffffffffffffffffffffffff1673ffffffffffffffffffffffffffffffffffffffff16815260200190815260200160002060009054906101000a900473ffffffffffffffffffffffffffffffffffffffff166040517fb3cb944900000000000000000000000000000000000000000000000000000000815260040161040f939291906109af565b60405180910390fd5b60006040518060200161042a9061081f565b6020820181038252601f19601f82011660405250905060008383604051602001610455929190610a2e565b604051602081830303815290604052805190602001209050808251602084016000f59450600073ffffffffffffffffffffffffffffffffffffffff168573ffffffffffffffffffffffffffffffffffffffff16036104df576040517f1e4f7d8c00000000000000000000000000000000000000000000000000000000815260040160405180910390fd5b8473ffffffffffffffffffffffffffffffffffffffff1663485cc95585856040518363ffffffff1660e01b815260040161051a929190610986565b600060405180830381600087803b15801561053457600080fd5b505af1158015610548573d6000803e3d6000fd5b50505050846000808673ffffffffffffffffffffffffffffffffffffffff1673ffffffffffffffffffffffffffffffffffffffff16815260200190815260200160002060008573ffffffffffffffffffffffffffffffffffffffff1673ffffffffffffffffffffffffffffffffffffffff16815260200190815260200160002060006101000a81548173ffffffffffffffffffffffffffffffffffffffff021916908373ffffffffffffffffffffffffffffffffffffffff160217905550846000808573ffffffffffffffffffffffffffffffffffffffff1673ffffffffffffffffffffffffffffffffffffffff16815260200190815260200160002060008673ffffffffffffffffffffffffffffffffffffffff1673ffffffffffffffffffffffffffffffffffffffff16815260200190815260200160002060006101000a81548173ffffffffffffffffffffffffffffffffffffffff021916908373ffffffffffffffffffffffffffffffffffffffff1602179055506001859080600181540180825580915050600190039060005260206000200160009091909190916101000a81548173ffffffffffffffffffffffffffffffffffffffff021916908373ffffffffffffffffffffffffffffffffffffffff1602179055508273ffffffffffffffffffffffffffffffffffffffff168473ffffffffffffffffffffffffffffffffffffffff167fa92a2b95c8d8436f6ac4c673c61487364f877efb9534d4296fad8ef904546c948760405161078091906108d5565b60405180910390a35050505092915050565b60006020528160005260406000206020528060005260406000206000915091509054906101000a900473ffffffffffffffffffffffffffffffffffffffff1681565b6000808273ffffffffffffffffffffffffffffffffffffffff168473ffffffffffffffffffffffffffffffffffffffff1610610811578284610814565b83835b915091509250929050565b612be580610a5b83390190565b600080fd5b6000819050919050565b61084481610831565b811461084f57600080fd5b50565b6000813590506108618161083b565b92915050565b60006020828403121561087d5761087c61082c565b5b600061088b84828501610852565b91505092915050565b600073ffffffffffffffffffffffffffffffffffffffff82169050919050565b60006108bf82610894565b9050919050565b6108cf816108b4565b82525050565b60006020820190506108ea60008301846108c6565b92915050565b6108f981610831565b82525050565b600060208201905061091460008301846108f0565b92915050565b610923816108b4565b811461092e57600080fd5b50565b6000813590506109408161091a565b92915050565b6000806040838503121561095d5761095c61082c565b5b600061096b85828601610931565b925050602061097c85828601610931565b9150509250929050565b600060408201905061099b60008301856108c6565b6109a860208301846108c6565b9392505050565b60006060820190506109c460008301866108c6565b6109d160208301856108c6565b6109de60408301846108c6565b949350505050565b60008160601b9050919050565b60006109fe826109e6565b9050919050565b6000610a10826109f3565b9050919050565b610a28610a23826108b4565b610a05565b82525050565b6000610a3a8285610a17565b601482019150610a4a8284610a17565b601482019150819050939250505056fe608060405234801561001057600080fd5b506040518060400160405280600981526020017f457a53776170204c5000000000000000000000000000000000000000000000008152506040518060400160405280600581526020017f457a534c50000000000000000000000000000000000000000000000000000000815250816003908161008c91906102fc565b50806004908161009c91906102fc565b50505060016005819055506103ce565b600081519050919050565b7f4e487b7100000000000000000000000000000000000000000000000000000000600052604160045260246000fd5b7f4e487b7100000000000000000000000000000000000000000000000000000000600052602260045260246000fd5b6000600282049050600182168061012d57607f821691505b6020821081036101405761013f6100e6565b5b50919050565b60008190508160005260206000209050919050565b60006020601f8301049050919050565b600082821b905092915050565b6000600883026101a87fffffffffffffffffffffffffffffffffffffffffffffffffffffffffffffffff8261016b565b6101b2868361016b565b95508019841693508086168417925050509392505050565b6000819050919050565b6000819050919050565b60006101f96101f46101ef846101ca565b6101d4565b6101ca565b9050919050565b6000819050919050565b610213836101de565b61022761021f82610200565b848454610178565b825550505050565b600090565b61023c61022f565b61024781848461020a565b505050565b5b8181101561026b57610260600082610234565b60018101905061024d565b5050565b601f8211156102b05761028181610146565b61028a8461015b565b81016020851015610299578190505b6102ad6102a58561015b565b83018261024c565b50505b505050565b600082821c905092915050565b60006102d3600019846008026102b5565b1980831691505092915050565b60006102ec83836102c2565b9150826002028217905092915050565b610305826100ac565b67ffffffffffffffff81111561031e5761031d6100b7565b5b6103288254610115565b61033382828561026f565b600060209050601f8311600181146103665760008415610354578287015190505b61035e85826102e0565b8655506103c6565b601f19841661037486610146565b60005b8281101561039c57848901518255600182019150602085019450602081019050610377565b868310156103b957848901516103b5601f8916826102c2565b8355505b6001600288020188555050505b505050505050565b612808806103dd6000396000f3fe608060405234801561001057600080fd5b506004361061010b5760003560e01c80636d9a640a116100a25780639cd441da116100715780639cd441da146102be578063a9059cbb146102ee578063ba9a7a561461031e578063d21220a71461033c578063dd62ed3e1461035a5761010b565b80636d9a640a1461022357806370a082311461023f57806395d89b411461026f5780639c8f9f231461028d5761010b565b806318160ddd116100de57806318160ddd1461019b57806323b872dd146101b9578063313ce567146101e9578063485cc955146102075761010b565b806306fdde03146101105780630902f1ac1461012e578063095ea7b31461014d5780630dfe16811461017d575b600080fd5b61011861038a565b60405161012591906120b3565b60405180910390f35b61013661041c565b6040516101449291906120fe565b60405180910390f35b610167600480360381019061016291906121c0565b610461565b604051610174919061221b565b60405180910390f35b610185610484565b6040516101929190612245565b60405180910390f35b6101a36104aa565b6040516101b0919061226f565b60405180910390f35b6101d360048036038101906101ce919061228a565b6104b4565b6040516101e0919061221b565b60405180910390f35b6101f16104e3565b6040516101fe91906122f9565b60405180910390f35b610221600480360381019061021c9190612314565b6104ec565b005b61023d60048036038101906102389190612354565b6106f4565b005b610259600480360381019061025491906123a7565b610c1f565b604051610266919061226f565b60405180910390f35b610277610c67565b60405161028491906120b3565b60405180910390f35b6102a760048036038101906102a291906123d4565b610cf9565b6040516102b5929190612401565b60405180910390f35b6102d860048036038101906102d3919061242a565b611062565b6040516102e5919061226f565b60405180910390f35b610308600480360381019061030391906121c0565b6114dd565b604051610315919061221b565b60405180910390f35b610326611500565b6040516103339190612487565b60405180910390f35b610344611506565b6040516103519190612245565b60405180910390f35b610374600480360381019061036f9190612314565b61152c565b604051610381919061226f565b60405180910390f35b606060038054610399906124d1565b80601f01602080910402602001604051908101604052809291908181526020018280546103c5906124d1565b80156104125780601f106103e757610100808354040283529160200191610412565b820191906000526020600020905b8154815290600101906020018083116103f557829003601f168201915b5050505050905090565b600080600860009054906101000a90046dffffffffffffffffffffffffffff166008600e9054906101000a90046dffffffffffffffffffffffffffff16915091509091565b60008061046c6115b3565b90506104798185856115bb565b600191505092915050565b600660009054906101000a900473ffffffffffffffffffffffffffffffffffffffff1681565b6000600254905090565b6000806104bf6115b3565b90506104cc8582856115cd565b6104d7858585611662565b60019150509392505050565b60006012905090565b600073ffffffffffffffffffffffffffffffffffffffff16600660009054906101000a900473ffffffffffffffffffffffffffffffffffffffff1673ffffffffffffffffffffffffffffffffffffffff161415806105995750600073ffffffffffffffffffffffffffffffffffffffff16600760009054906101000a900473ffffffffffffffffffffffffffffffffffffffff1673ffffffffffffffffffffffffffffffffffffffff1614155b156105d0576040517f0dc149f000000000000000000000000000000000000000000000000000000000815260040160405180910390fd5b600073ffffffffffffffffffffffffffffffffffffffff168273ffffffffffffffffffffffffffffffffffffffff1614806106375750600073ffffffffffffffffffffffffffffffffffffffff168173ffffffffffffffffffffffffffffffffffffffff16145b1561066e576040517fc1ab6dc100000000000000000000000000000000000000000000000000000000815260040160405180910390fd5b81600660006101000a81548173ffffffffffffffffffffffffffffffffffffffff021916908373ffffffffffffffffffffffffffffffffffffffff16021790555080600760006101000a81548173ffffffffffffffffffffffffffffffffffffffff021916908373ffffffffffffffffffffffffffffffffffffffff1602179055505050565b6106fc611756565b60008314801561070c5750600082145b15610743576040517f1f2a200500000000000000000000000000000000000000000000000000000000815260040160405180910390fd5b600080600860009054906101000a90046dffffffffffffffffffffffffffff166008600e9054906101000a90046dffffffffffffffffffffffffffff1691509150816dffffffffffffffffffffffffffff168511806107b15750806dffffffffffffffffffffffffffff1684115b156107e8576040517fbb55fd2700000000000000000000000000000000000000000000000000000000815260040160405180910390fd5b600085111561083f5761083e8386600660009054906101000a900473ffffffffffffffffffffffffffffffffffffffff1673ffffffffffffffffffffffffffffffffffffffff1661179c9092919063ffffffff16565b5b6000841115610896576108958385600760009054906101000a900473ffffffffffffffffffffffffffffffffffffffff1673ffffffffffffffffffffffffffffffffffffffff1661179c9092919063ffffffff16565b5b6000600660009054906101000a900473ffffffffffffffffffffffffffffffffffffffff1673ffffffffffffffffffffffffffffffffffffffff166370a08231306040518263ffffffff1660e01b81526004016108f39190612245565b602060405180830381865afa158015610910573d6000803e3d6000fd5b505050506040513d601f19601f820116820180604052508101906109349190612517565b90506000600760009054906101000a900473ffffffffffffffffffffffffffffffffffffffff1673ffffffffffffffffffffffffffffffffffffffff166370a08231306040518263ffffffff1660e01b81526004016109939190612245565b602060405180830381865afa1580156109b0573d6000803e3d6000fd5b505050506040513d601f19601f820116820180604052508101906109d49190612517565b9050600087856dffffffffffffffffffffffffffff166109f49190612573565b8311610a01576000610a29565b87856dffffffffffffffffffffffffffff16610a1d9190612573565b83610a289190612573565b5b9050600087856dffffffffffffffffffffffffffff16610a499190612573565b8311610a56576000610a7e565b87856dffffffffffffffffffffffffffff16610a729190612573565b83610a7d9190612573565b5b9050600082148015610a905750600081145b15610ac7576040517f098fb56100000000000000000000000000000000000000000000000000000000815260040160405180910390fd5b846dffffffffffffffffffffffffffff16866dffffffffffffffffffffffffffff16610af391906125a7565b8385610aff91906125a7565b1015610b37576040517f098fb56100000000000000000000000000000000000000000000000000000000815260040160405180910390fd5b83600860006101000a8154816dffffffffffffffffffffffffffff02191690836dffffffffffffffffffffffffffff160217905550826008600e6101000a8154816dffffffffffffffffffffffffffff02191690836dffffffffffffffffffffffffffff1602179055508673ffffffffffffffffffffffffffffffffffffffff163373ffffffffffffffffffffffffffffffffffffffff167fd78ad95fa46c994b6551d0da85fc275fe613ce37657fb8d5e3d130840159d82284848d8d604051610c0494939291906125e9565b60405180910390a3505050505050610c1a61181b565b505050565b60008060008373ffffffffffffffffffffffffffffffffffffffff1673ffffffffffffffffffffffffffffffffffffffff168152602001908152602001600020549050919050565b606060048054610c76906124d1565b80601f0160208091040260200160405190810160405280929190818152602001828054610ca2906124d1565b8015610cef5780601f10610cc457610100808354040283529160200191610cef565b820191906000526020600020905b815481529060010190602001808311610cd257829003601f168201915b5050505050905090565b600080610d04611756565b60008303610d3e576040517f1f2a200500000000000000000000000000000000000000000000000000000000815260040160405180910390fd5b6000610d486104aa565b90506103e861ffff1681610d5c9190612573565b841115610db1576103e861ffff1681610d759190612573565b6040517fb86771ac000000000000000000000000000000000000000000000000000000008152600401610da8919061226f565b60405180910390fd5b6000600860009054906101000a90046dffffffffffffffffffffffffffff16905060006008600e9054906101000a90046dffffffffffffffffffffffffffff1690508286836dffffffffffffffffffffffffffff16610e1091906125a7565b610e1a919061265d565b94508286826dffffffffffffffffffffffffffff16610e3991906125a7565b610e43919061265d565b9350600085148015610e555750600084145b15610e8c576040517fbb55fd2700000000000000000000000000000000000000000000000000000000815260040160405180910390fd5b610e963387611825565b8482610ea2919061268e565b600860008282829054906101000a90046dffffffffffffffffffffffffffff16610ecc919061268e565b92506101000a8154816dffffffffffffffffffffffffffff02191690836dffffffffffffffffffffffffffff1602179055508381610f0a919061268e565b6008600e8282829054906101000a90046dffffffffffffffffffffffffffff16610f34919061268e565b92506101000a8154816dffffffffffffffffffffffffffff02191690836dffffffffffffffffffffffffffff160217905550610fb33386600660009054906101000a900473ffffffffffffffffffffffffffffffffffffffff1673ffffffffffffffffffffffffffffffffffffffff1661179c9092919063ffffffff16565b6110003385600760009054906101000a900473ffffffffffffffffffffffffffffffffffffffff1673ffffffffffffffffffffffffffffffffffffffff1661179c9092919063ffffffff16565b3373ffffffffffffffffffffffffffffffffffffffff167f1dc8bb69df2b8e91fbdcbfcf93d951b3f0000f085a95fe3f7946d6161439245d86868960405161104a939291906126d0565b60405180910390a250505061105d61181b565b915091565b600061106c611756565b600083148061107b5750600082145b156110b2576040517f1f2a200500000000000000000000000000000000000000000000000000000000815260040160405180910390fd5b600080600860009054906101000a90046dffffffffffffffffffffffffffff166008600e9054906101000a90046dffffffffffffffffffffffffffff1691509150611142333087600660009054906101000a900473ffffffffffffffffffffffffffffffffffffffff1673ffffffffffffffffffffffffffffffffffffffff166118a7909392919063ffffffff16565b611191333086600760009054906101000a900473ffffffffffffffffffffffffffffffffffffffff1673ffffffffffffffffffffffffffffffffffffffff166118a7909392919063ffffffff16565b6000600660009054906101000a900473ffffffffffffffffffffffffffffffffffffffff1673ffffffffffffffffffffffffffffffffffffffff166370a08231306040518263ffffffff1660e01b81526004016111ee9190612245565b602060405180830381865afa15801561120b573d6000803e3d6000fd5b505050506040513d601f19601f8201168201806040525081019061122f9190612517565b90506000600760009054906101000a900473ffffffffffffffffffffffffffffffffffffffff1673ffffffffffffffffffffffffffffffffffffffff166370a08231306040518263ffffffff1660e01b815260040161128e9190612245565b602060405180830381865afa1580156112ab573d6000803e3d6000fd5b505050506040513d601f19601f820116820180604052508101906112cf9190612517565b90506000846dffffffffffffffffffffffffffff16836112ef9190612573565b90506000846dffffffffffffffffffffffffffff168361130f9190612573565b9050600061131b6104aa565b03611362576000611336828461133191906125a7565b611929565b9050611348306103e861ffff16611ac6565b6103e861ffff168161135a9190612573565b9750506113c9565b6113c6866dffffffffffffffffffffffffffff1661137e6104aa565b8461138991906125a7565b611393919061265d565b866dffffffffffffffffffffffffffff166113ac6104aa565b846113b791906125a7565b6113c1919061265d565b611b48565b96505b60008703611403576040517f1f2a200500000000000000000000000000000000000000000000000000000000815260040160405180910390fd5b61140d3388611ac6565b83600860006101000a8154816dffffffffffffffffffffffffffff02191690836dffffffffffffffffffffffffffff160217905550826008600e6101000a8154816dffffffffffffffffffffffffffff02191690836dffffffffffffffffffffffffffff1602179055503373ffffffffffffffffffffffffffffffffffffffff167f64b83944e79c3ce8d4c297411de637c3e102d064677aac0c163976ebdcd6f50e83838a6040516114c1939291906126d0565b60405180910390a25050505050506114d761181b565b92915050565b6000806114e86115b3565b90506114f5818585611662565b600191505092915050565b6103e881565b600760009054906101000a900473ffffffffffffffffffffffffffffffffffffffff1681565b6000600160008473ffffffffffffffffffffffffffffffffffffffff1673ffffffffffffffffffffffffffffffffffffffff16815260200190815260200160002060008373ffffffffffffffffffffffffffffffffffffffff1673ffffffffffffffffffffffffffffffffffffffff16815260200190815260200160002054905092915050565b600033905090565b6115c88383836001611b5f565b505050565b60006115d9848461152c565b90507fffffffffffffffffffffffffffffffffffffffffffffffffffffffffffffffff81101561165c578181101561164c578281836040517ffb8f41b200000000000000000000000000000000000000000000000000000000815260040161164393929190612707565b60405180910390fd5b61165b84848484036000611b5f565b5b50505050565b600073ffffffffffffffffffffffffffffffffffffffff168373ffffffffffffffffffffffffffffffffffffffff16036116d45760006040517f96c6fd1e0000000000000000000000000000000000000000000000000000000081526004016116cb9190612245565b60405180910390fd5b600073ffffffffffffffffffffffffffffffffffffffff168273ffffffffffffffffffffffffffffffffffffffff16036117465760006040517fec442f0500000000000000000000000000000000000000000000000000000000815260040161173d9190612245565b60405180910390fd5b611751838383611d36565b505050565b600260055403611792576040517f3ee5aeb500000000000000000000000000000000000000000000000000000000815260040160405180910390fd5b6002600581905550565b611816838473ffffffffffffffffffffffffffffffffffffffff1663a9059cbb85856040516024016117cf92919061273e565b604051602081830303815290604052915060e01b6020820180517bffffffffffffffffffffffffffffffffffffffffffffffffffffffff8381831617835250505050611f5b565b505050565b6001600581905550565b600073ffffffffffffffffffffffffffffffffffffffff168273ffffffffffffffffffffffffffffffffffffffff16036118975760006040517f96c6fd1e00000000000000000000000000000000000000000000000000000000815260040161188e9190612245565b60405180910390fd5b6118a382600083611d36565b5050565b611923848573ffffffffffffffffffffffffffffffffffffffff166323b872dd8686866040516024016118dc93929190612767565b604051602081830303815290604052915060e01b6020820180517bffffffffffffffffffffffffffffffffffffffffffffffffffffffff8381831617835250505050611f5b565b50505050565b60006001821161193b57819050611ac1565b6000829050600060019050700100000000000000000000000000000000821061196d57608082901c9150604081901b90505b68010000000000000000821061198c57604082901c9150602081901b90505b64010000000082106119a757602082901c9150601081901b90505b6201000082106119c057601082901c9150600881901b90505b61010082106119d857600882901c9150600481901b90505b601082106119ef57600482901c9150600281901b90505b600482106119ff57600181901b90505b600181600302901c90506001818581611a1b57611a1a61262e565b5b048201901c90506001818581611a3457611a3361262e565b5b048201901c90506001818581611a4d57611a4c61262e565b5b048201901c90506001818581611a6657611a6561262e565b5b048201901c90506001818581611a7f57611a7e61262e565b5b048201901c90506001818581611a9857611a9761262e565b5b048201901c9050611aba818581611ab257611ab161262e565b5b048211611ffd565b8103925050505b919050565b600073ffffffffffffffffffffffffffffffffffffffff168273ffffffffffffffffffffffffffffffffffffffff1603611b385760006040517fec442f05000000000000000000000000000000000000000000000000000000008152600401611b2f9190612245565b60405180910390fd5b611b4460008383611d36565b5050565b6000611b578284108484612009565b905092915050565b600073ffffffffffffffffffffffffffffffffffffffff168473ffffffffffffffffffffffffffffffffffffffff1603611bd15760006040517fe602df05000000000000000000000000000000000000000000000000000000008152600401611bc89190612245565b60405180910390fd5b600073ffffffffffffffffffffffffffffffffffffffff168373ffffffffffffffffffffffffffffffffffffffff1603611c435760006040517f94280d62000000000000000000000000000000000000000000000000000000008152600401611c3a9190612245565b60405180910390fd5b81600160008673ffffffffffffffffffffffffffffffffffffffff1673ffffffffffffffffffffffffffffffffffffffff16815260200190815260200160002060008573ffffffffffffffffffffffffffffffffffffffff1673ffffffffffffffffffffffffffffffffffffffff168152602001908152602001600020819055508015611d30578273ffffffffffffffffffffffffffffffffffffffff168473ffffffffffffffffffffffffffffffffffffffff167f8c5be1e5ebec7d5bd14f71427d1e84f3dd0314c0f7b2291e5b200ac8c7c3b92584604051611d27919061226f565b60405180910390a35b50505050565b600073ffffffffffffffffffffffffffffffffffffffff168373ffffffffffffffffffffffffffffffffffffffff1603611d88578060026000828254611d7c919061279e565b92505081905550611e5b565b60008060008573ffffffffffffffffffffffffffffffffffffffff1673ffffffffffffffffffffffffffffffffffffffff16815260200190815260200160002054905081811015611e14578381836040517fe450d38c000000000000000000000000000000000000000000000000000000008152600401611e0b93929190612707565b60405180910390fd5b8181036000808673ffffffffffffffffffffffffffffffffffffffff1673ffffffffffffffffffffffffffffffffffffffff16815260200190815260200160002081905550505b600073ffffffffffffffffffffffffffffffffffffffff168273ffffffffffffffffffffffffffffffffffffffff1603611ea45780600260008282540392505081905550611ef1565b806000808473ffffffffffffffffffffffffffffffffffffffff1673ffffffffffffffffffffffffffffffffffffffff168152602001908152602001600020600082825401925050819055505b8173ffffffffffffffffffffffffffffffffffffffff168373ffffffffffffffffffffffffffffffffffffffff167fddf252ad1be2c89b69c2b068fc378daa952ba7f163c4a11628f55a4df523b3ef83604051611f4e919061226f565b60405180910390a3505050565b600080602060008451602086016000885af180611f7e576040513d6000823e3d81fd5b3d925060005191505060008214611f99576001811415611fb5565b60008473ffffffffffffffffffffffffffffffffffffffff163b145b15611ff757836040517f5274afe7000000000000000000000000000000000000000000000000000000008152600401611fee9190612245565b60405180910390fd5b50505050565b60008115159050919050565b600061201484611ffd565b82841802821890509392505050565b600081519050919050565b600082825260208201905092915050565b60005b8381101561205d578082015181840152602081019050612042565b60008484015250505050565b6000601f19601f8301169050919050565b600061208582612023565b61208f818561202e565b935061209f81856020860161203f565b6120a881612069565b840191505092915050565b600060208201905081810360008301526120cd818461207a565b905092915050565b60006dffffffffffffffffffffffffffff82169050919050565b6120f8816120d5565b82525050565b600060408201905061211360008301856120ef565b61212060208301846120ef565b9392505050565b600080fd5b600073ffffffffffffffffffffffffffffffffffffffff82169050919050565b60006121578261212c565b9050919050565b6121678161214c565b811461217257600080fd5b50565b6000813590506121848161215e565b92915050565b6000819050919050565b61219d8161218a565b81146121a857600080fd5b50565b6000813590506121ba81612194565b92915050565b600080604083850312156121d7576121d6612127565b5b60006121e585828601612175565b92505060206121f6858286016121ab565b9150509250929050565b60008115159050919050565b61221581612200565b82525050565b6000602082019050612230600083018461220c565b92915050565b61223f8161214c565b82525050565b600060208201905061225a6000830184612236565b92915050565b6122698161218a565b82525050565b60006020820190506122846000830184612260565b92915050565b6000806000606084860312156122a3576122a2612127565b5b60006122b186828701612175565b93505060206122c286828701612175565b92505060406122d3868287016121ab565b9150509250925092565b600060ff82169050919050565b6122f3816122dd565b82525050565b600060208201905061230e60008301846122ea565b92915050565b6000806040838503121561232b5761232a612127565b5b600061233985828601612175565b925050602061234a85828601612175565b9150509250929050565b60008060006060848603121561236d5761236c612127565b5b600061237b868287016121ab565b935050602061238c868287016121ab565b925050604061239d86828701612175565b9150509250925092565b6000602082840312156123bd576123bc612127565b5b60006123cb84828501612175565b91505092915050565b6000602082840312156123ea576123e9612127565b5b60006123f8848285016121ab565b91505092915050565b60006040820190506124166000830185612260565b6124236020830184612260565b9392505050565b6000806040838503121561244157612440612127565b5b600061244f858286016121ab565b9250506020612460858286016121ab565b9150509250929050565b600061ffff82169050919050565b6124818161246a565b82525050565b600060208201905061249c6000830184612478565b92915050565b7f4e487b7100000000000000000000000000000000000000000000000000000000600052602260045260246000fd5b600060028204905060018216806124e957607f821691505b6020821081036124fc576124fb6124a2565b5b50919050565b60008151905061251181612194565b92915050565b60006020828403121561252d5761252c612127565b5b600061253b84828501612502565b91505092915050565b7f4e487b7100000000000000000000000000000000000000000000000000000000600052601160045260246000fd5b600061257e8261218a565b91506125898361218a565b92508282039050818111156125a1576125a0612544565b5b92915050565b60006125b28261218a565b91506125bd8361218a565b92508282026125cb8161218a565b915082820484148315176125e2576125e1612544565b5b5092915050565b60006080820190506125fe6000830187612260565b61260b6020830186612260565b6126186040830185612260565b6126256060830184612260565b95945050505050565b7f4e487b7100000000000000000000000000000000000000000000000000000000600052601260045260246000fd5b60006126688261218a565b91506126738361218a565b9250826126835761268261262e565b5b828204905092915050565b6000612699826120d5565b91506126a4836120d5565b925082820390506dffffffffffffffffffffffffffff8111156126ca576126c9612544565b5b92915050565b60006060820190506126e56000830186612260565b6126f26020830185612260565b6126ff6040830184612260565b949350505050565b600060608201905061271c6000830186612236565b6127296020830185612260565b6127366040830184612260565b949350505050565b60006040820190506127536000830185612236565b6127606020830184612260565b9392505050565b600060608201905061277c6000830186612236565b6127896020830185612236565b6127966040830184612260565b949350505050565b60006127a98261218a565b91506127b48361218a565b92508282019050808211156127cc576127cb612544565b5b9291505056fea2646970667358221220755f31263bc810213547aef88928adfd735d313c63c2a4595dc3f5393630df7064736f6c634300081e0033a2646970667358221220eebf8b686b21950147f591b09304c2b7d5ff901b9187a1d61de25ec56005e91364736f6c634300081e0033",
  "linkReferences": {},
  "deployedLinkReferences": {}
}