{
  "_format": "hh-sol-artifact-1",
  "contractName": "MockERC20",
  "sourceName": "contracts/MockERC20.sol",
  "abi": [
    {
      "inputs": [
        {
          "internalType": "string",
          "name": "name",
          "type": "string"
        },
        {
          "internalType": "string",
          "name": "symbol",
          "type": "string"
        },
        {
          "internalType": "uint8",
          "name": "decimals_",
          "type": "uint8"
        }
      ],
      "stateMutability": "nonpayable",
      "type": "constructor"
    },
    {
      "inputs": [
        {
          "internalType": "address",
          "name": "spender",
          "type": "address"
        },
        {
          "internalType": "uint256",
          "name": "allowance",
          "type": "uint256"
        },
        {
          "internalType": "uint256",
          "name": "needed",
          "type": "uint256"
        }
      ],
      "name": "ERC20InsufficientAllowance",
      "type": "error"
    },
    {
      "inputs": [
        {
          "internalType": "address",
          "name": "sender",
          "type": "address"
        },
        {
          "internalType": "uint256",
          "name": "balance",
          "type": "uint256"
        },
        {
          "internalType": "uint256",
          "name": "needed",
          "type": "uint256"
        }
      ],
      "name": "ERC20InsufficientBalance",
      "type": "error"
    },
    {
      "inputs": [
        {
          "internalType": "address",
          "name": "approver",
          "type": "address"
        }
      ],
      "name": "ERC20InvalidApprover",
      "type": "error"
    },
    {
      "inputs": [
        {
          "internalType": "address",
          "name": "receiver",
          "type": "address"
        }
      ],
      "name": "ERC20InvalidReceiver",
      "type": "error"
    },
    {
      "inputs": [
        {
          "internalType": "address",
          "name": "sender",
          "type": "address"
        }
      ],
      "name": "ERC20InvalidSender",
      "type": "error"
    },
    {
      "inputs": [
        {
          "internalType": "address",
          "name": "spender",
          "type": "address"
        }
      ],
      "name": "ERC20InvalidSpender",
      "type": "error"
    },
    {
      "anonymous": false,
      "inputs": [
        {
          "indexed": true,
          "internalType": "address",
          "name": "owner",
          "type": "address"
        },
        {
          "indexed": true,
          "internalType": "address",
          "name": "spender",
          "type": "address"
        },
        {
          "indexed": false,
          "internalType": "uint256",
          "name": "value",
          "type": "uint256"
        }
      ],
      "name": "Approval",
      "type": "event"
    },
    {
      "anonymous": false,
      "inputs": [
        {
          "indexed": true,
          "internalType": "address",
          "name": "from",
          "type": "address"
        },
        {
          "indexed": true,
          "internalType": "address",
          "name": "to",
          "type": "address"
        },
        {
          "indexed": false,
          "internalType": "uint256",
          "name": "value",
          "type": "uint256"
        }
      ],
      "name": "Transfer",
      "type": "event"
    },
    {
      "inputs": [
        {
          "internalType": "address",
          "name": "owner",
          "type": "address"
        },
        {
          "internalType": "address",
          "name": "spender",
          "type": "address"
        }
      ],
      "name": "allowance",
      "outputs": [
        {
          "internalType": "uint256",
          "name": "",
          "type": "uint256"
        }
      ],
      "stateMutability": "view",
      "type": "function"
    },
    {
      "inputs": [
        {
          "internalType": "address",
          "name": "spender",
          "type": "address"
        },
        {
          "internalType": "uint256",
          "name": "value",
          "type": "uint256"
        }
      ],
      "name": "approve",
      "outputs": [
        {
          "internalType": "bool",
          "name": "",
          "type": "bool"
        }
      ],
      "stateMutability": "nonpayable",
      "type": "function"
    },
    {
      "inputs": [
        {
          "internalType": "address",
          "name": "account",
          "type": "address"
        }
      ],
      "name": "balanceOf",
      "outputs": [
        {
          "internalType": "uint256",
          "name": "",
          "type": "uint256"
        }
      ],
      "stateMutability": "view",
      "type": "function"
    },
    {
      "inputs": [
        {
          "internalType": "address",
          "name": "from",
          "type": "address"
        },
        {
          "internalType": "uint256",
          "name": "amount",
          "type": "uint256"
        }
      ],
      "name": "burn",
      "outputs": [],
      "stateMutability": "nonpayable",
      "type": "function"
    },
    {
      "inputs": [],
      "name": "decimals",
      "outputs": [
        {
          "internalType": "uint8",
          "name": "",
          "type": "uint8"
        }
      ],
      "stateMutability": "view",
      "type": "function"
    },
    {
      "inputs": [
        {
          "internalType": "address",
          "name": "to",
          "type": "address"
        },
        {
          "internalType": "uint256",
          "name": "amount",
          "type": "uint256"
        }
      ],
      "name": "mint",
      "outputs": [],
      "stateMutability": "nonpayable",
      "type": "function"
    },
    {
      "inputs": [],
      "name": "name",
      "outputs": [
        {
          "internalType": "string",
          "name": "",
          "type": "string"
        }
      ],
      "stateMutability": "view",
      "type": "function"
    },
    {
      "inputs": [],
      "name": "symbol",
      "outputs": [
        {
          "internalType": "string",
          "name": "",
          "type": "string"
        }
      ],
      "stateMutability": "view",
      "type": "function"
    },
    {
      "inputs": [],
      "name": "totalSupply",
      "outputs": [
        {
          "internalType": "uint256",
          "name": "",
          "type": "uint256"
        }
      ],
      "stateMutability": "view",
      "type": "function"
    },
    {
      "inputs": [
        {
          "internalType": "address",
          "name": "to",
          "type": "address"
        },
        {
          "internalType": "uint256",
          "name": "value",
          "type": "uint256"
        }
      ],
      "name": "transfer",
      "outputs": [
        {
          "internalType": "bool",
          "name": "",
          "type": "bool"
        }
      ],
      "stateMutability": "nonpayable",
      "type": "function"
    },
    {
      "inputs": [
        {
          "internalType": "address",
          "name": "from",
          "type": "address"
        },
        {
          "internalType": "address",
          "name": "to",
          "type": "address"
        },
        {
          "internalType": "uint256",
          "name": "value",
          "type": "uint256"
        }
      ],
      "name": "transferFrom",
      "outputs": [
        {
          "internalType": "bool",
          "name": "",
          "type": "bool"
        }
      ],
      "stateMutability": "nonpayable",
      "type": "function"
    }
  ],
  "bytecode": "0x608060405234801561001057600080fd5b5060405161156b38038061156b8339818101604052810190610032919061020c565b8282816003908161004391906104b8565b50806004908161005391906104b8565b50505050505061058a565b6000604051905090565b600080fd5b600080fd5b600080fd5b600080fd5b6000601f19601f8301169050919050565b7f4e487b7100000000000000000000000000000000000000000000000000000000600052604160045260246000fd5b6100c58261007c565b810181811067ffffffffffffffff821117156100e4576100e361008d565b5b80604052505050565b60006100f761005e565b905061010382826100bc565b919050565b600067ffffffffffffffff8211156101235761012261008d565b5b61012c8261007c565b9050602081019050919050565b60005b8381101561015757808201518184015260208101905061013c565b60008484015250505050565b600061017661017184610108565b6100ed565b90508281526020810184848401111561019257610191610077565b5b61019d848285610139565b509392505050565b600082601f8301126101ba576101b9610072565b5b81516101ca848260208601610163565b91505092915050565b600060ff82169050919050565b6101e9816101d3565b81146101f457600080fd5b50565b600081519050610206816101e0565b92915050565b60008060006060848603121561022557610224610068565b5b600084015167ffffffffffffffff8111156102435761024261006d565b5b61024f868287016101a5565b935050602084015167ffffffffffffffff8111156102705761026f61006d565b5b61027c868287016101a5565b925050604061028d868287016101f7565b9150509250925092565b600081519050919050565b7f4e487b7100000000000000000000000000000000000000000000000000000000600052602260045260246000fd5b600060028204905060018216806102e957607f821691505b6020821081036102fc576102fb6102a2565b5b50919050565b60008190508160005260206000209050919050565b60006020601f8301049050919050565b600082821b905092915050565b6000600883026103647fffffffffffffffffffffffffffffffffffffffffffffffffffffffffffffffff82610327565b61036e8683610327565b95508019841693508086168417925050509392505050565b6000819050919050565b6000819050919050565b60006103b56103b06103ab84610386565b610390565b610386565b9050919050565b6000819050919050565b6103cf8361039a565b6103e36103db826103bc565b848454610334565b825550505050565b600090565b6103f86103eb565b6104038184846103c6565b505050565b5b818110156104275761041c6000826103f0565b600181019050610409565b5050565b601f82111561046c5761043d81610302565b61044684610317565b81016020851015610455578190505b61046961046185610317565b830182610408565b50505b505050565b600082821c905092915050565b600061048f60001984600802610471565b1980831691505092915050565b60006104a8838361047e565b9150826002028217905092915050565b6104c182610297565b67ffffffffffffffff8111156104da576104d961008d565b5b6104e482546102d1565b6104ef82828561042b565b600060209050601f8311600181146105225760008415610510578287015190505b61051a858261049c565b865550610582565b601f19841661053086610302565b60005b8281101561055857848901518255600182019150602085019450602081019050610533565b868310156105755784890151610571601f89168261047e565b8355505b6001600288020188555050505b505050505050565b610fd2806105996000396000f3fe608060405234801561001057600080fd5b50600436106100a95760003560e01c806340c10f191161007157806340c10f191461016857806370a082311461018457806395d89b41146101b45780639dc29fac146101d2578063a9059cbb146101ee578063dd62ed3e1461021e576100a9565b806306fdde03146100ae578063095ea7b3146100cc57806318160ddd146100fc57806323b872dd1461011a578063313ce5671461014a575b600080fd5b6100b661024e565b6040516100c39190610c26565b60405180910390f35b6100e660048036038101906100e19190610ce1565b6102e0565b6040516100f39190610d3c565b60405180910390f35b610104610303565b6040516101119190610d66565b60405180910390f35b610134600480360381019061012f9190610d81565b61030d565b6040516101419190610d3c565b60405180910390f35b61015261033c565b60405161015f9190610df0565b60405180910390f35b610182600480360381019061017d9190610ce1565b610353565b005b61019e60048036038101906101999190610e0b565b610361565b6040516101ab9190610d66565b60405180910390f35b6101bc6103a9565b6040516101c99190610c26565b60405180910390f35b6101ec60048036038101906101e79190610ce1565b61043b565b005b61020860048036038101906102039190610ce1565b610449565b6040516102159190610d3c565b60405180910390f35b61023860048036038101906102339190610e38565b61046c565b6040516102459190610d66565b60405180910390f35b60606003805461025d90610ea7565b80601f016020809104026020016040519081016040528092919081815260200182805461028990610ea7565b80156102d65780601f106102ab576101008083540402835291602001916102d6565b820191906000526020600020905b8154815290600101906020018083116102b957829003601f168201915b5050505050905090565b6000806102eb6104f3565b90506102f88185856104fb565b600191505092915050565b6000600254905090565b6000806103186104f3565b905061032585828561050d565b6103308585856105a2565b60019150509392505050565b6000600560009054906101000a900460ff16905090565b61035d8282610696565b5050565b60008060008373ffffffffffffffffffffffffffffffffffffffff1673ffffffffffffffffffffffffffffffffffffffff168152602001908152602001600020549050919050565b6060600480546103b890610ea7565b80601f01602080910402602001604051908101604052809291908181526020018280546103e490610ea7565b80156104315780601f1061040657610100808354040283529160200191610431565b820191906000526020600020905b81548152906001019060200180831161041457829003601f168201915b5050505050905090565b6104458282610718565b5050565b6000806104546104f3565b90506104618185856105a2565b600191505092915050565b6000600160008473ffffffffffffffffffffffffffffffffffffffff1673ffffffffffffffffffffffffffffffffffffffff16815260200190815260200160002060008373ffffffffffffffffffffffffffffffffffffffff1673ffffffffffffffffffffffffffffffffffffffff16815260200190815260200160002054905092915050565b600033905090565b610508838383600161079a565b505050565b6000610519848461046c565b90507fffffffffffffffffffffffffffffffffffffffffffffffffffffffffffffffff81101561059c578181101561058c578281836040517ffb8f41b200000000000000000000000000000000000000000000000000000000815260040161058393929190610ee7565b60405180910390fd5b61059b8484848403600061079a565b5b50505050565b600073ffffffffffffffffffffffffffffffffffffffff168373ffffffffffffffffffffffffffffffffffffffff16036106145760006040517f96c6fd1e00000000000000000000000000000000000000000000000000000000815260040161060b9190610f1e565b60405180910390fd5b600073ffffffffffffffffffffffffffffffffffffffff168273ffffffffffffffffffffffffffffffffffffffff16036106865760006040517fec442f0500000000000000000000000000000000000000000000000000000000815260040161067d9190610f1e565b60405180910390fd5b610691838383610971565b505050565b600073ffffffffffffffffffffffffffffffffffffffff168273ffffffffffffffffffffffffffffffffffffffff16036107085760006040517fec442f050000000000000000000000000000000000000000000000000000000081526004016106ff9190610f1e565b60405180910390fd5b61071460008383610971565b5050565b600073ffffffffffffffffffffffffffffffffffffffff168273ffffffffffffffffffffffffffffffffffffffff160361078a5760006040517f96c6fd1e0000000000000000000000000000000000000000000000000000000081526004016107819190610f1e565b60405180910390fd5b61079682600083610971565b5050565b600073ffffffffffffffffffffffffffffffffffffffff168473ffffffffffffffffffffffffffffffffffffffff160361080c5760006040517fe602df050000000000000000000000000000000000000000000000000000000081526004016108039190610f1e565b60405180910390fd5b600073ffffffffffffffffffffffffffffffffffffffff168373ffffffffffffffffffffffffffffffffffffffff160361087e5760006040517f94280d620000000000000000000000000000000000000000000000000000000081526004016108759190610f1e565b60405180910390fd5b81600160008673ffffffffffffffffffffffffffffffffffffffff1673ffffffffffffffffffffffffffffffffffffffff16815260200190815260200160002060008573ffffffffffffffffffffffffffffffffffffffff1673ffffffffffffffffffffffffffffffffffffffff16815260200190815260200160002081905550801561096b578273ffffffffffffffffffffffffffffffffffffffff168473ffffffffffffffffffffffffffffffffffffffff167f8c5be1e5ebec7d5bd14f71427d1e84f3dd0314c0f7b2291e5b200ac8c7c3b925846040516109629190610d66565b60405180910390a35b50505050565b600073ffffffffffffffffffffffffffffffffffffffff168373ffffffffffffffffffffffffffffffffffffffff16036109c35780600260008282546109b79190610f68565b92505081905550610a96565b60008060008573ffffffffffffffffffffffffffffffffffffffff1673ffffffffffffffffffffffffffffffffffffffff16815260200190815260200160002054905081811015610a4f578381836040517fe450d38c000000000000000000000000000000000000000000000000000000008152600401610a4693929190610ee7565b60405180910390fd5b8181036000808673ffffffffffffffffffffffffffffffffffffffff1673ffffffffffffffffffffffffffffffffffffffff16815260200190815260200160002081905550505b600073ffffffffffffffffffffffffffffffffffffffff168273ffffffffffffffffffffffffffffffffffffffff1603610adf5780600260008282540392505081905550610b2c565b806000808473ffffffffffffffffffffffffffffffffffffffff1673ffffffffffffffffffffffffffffffffffffffff168152602001908152602001600020600082825401925050819055505b8173ffffffffffffffffffffffffffffffffffffffff168373ffffffffffffffffffffffffffffffffffffffff167fddf252ad1be2c89b69c2b068fc378daa952ba7f163c4a11628f55a4df523b3ef83604051610b899190610d66565b60405180910390a3505050565b600081519050919050565b600082825260208201905092915050565b60005b83811015610bd0578082015181840152602081019050610bb5565b60008484015250505050565b6000601f19601f8301169050919050565b6000610bf882610b96565b610c028185610ba1565b9350610c12818560208601610bb2565b610c1b81610bdc565b840191505092915050565b60006020820190508181036000830152610c408184610bed565b905092915050565b600080fd5b600073ffffffffffffffffffffffffffffffffffffffff82169050919050565b6000610c7882610c4d565b9050919050565b610c8881610c6d565b8114610c9357600080fd5b50565b600081359050610ca581610c7f565b92915050565b6000819050919050565b610cbe81610cab565b8114610cc957600080fd5b50565b600081359050610cdb81610cb5565b92915050565b60008060408385031215610cf857610cf7610c48565b5b6000610d0685828601610c96565b9250506020610d1785828601610ccc565b9150509250929050565b60008115159050919050565b610d3681610d21565b82525050565b6000602082019050610d516000830184610d2d565b92915050565b610d6081610cab565b82525050565b6000602082019050610d7b6000830184610d57565b92915050565b600080600060608486031215610d9a57610d99610c48565b5b6000610da886828701610c96565b9350506020610db986828701610c96565b9250506040610dca86828701610ccc565b9150509250925092565b600060ff82169050919050565b610dea81610dd4565b82525050565b6000602082019050610e056000830184610de1565b92915050565b600060208284031215610e2157610e20610c48565b5b6000610e2f84828501610c96565b91505092915050565b60008060408385031215610e4f57610e4e610c48565b5b6000610e5d85828601610c96565b9250506020610e6e85828601610c96565b9150509250929050565b7f4e487b7100000000000000000000000000000000000000000000000000000000600052602260045260246000fd5b60006002820490506001821680610ebf57607f821691505b602082108103610ed257610ed1610e78565b5b50919050565b610ee181610c6d565b82525050565b6000606082019050610efc6000830186610ed8565b610f096020830185610d57565b610f166040830184610d57565b949350505050565b6000602082019050610f336000830184610ed8565b92915050565b7f4e487b7100000000000000000000000000000000000000000000000000000000600052601160045260246000fd5b6000610f7382610cab565b9150610f7e83610cab565b9250828201905080821115610f9657610f95610f39565b5b9291505056fea2646970667358221220f753b603d1712ef7e9b9450cf1386c2537eaa33f2de31e29dbd94fe521792ed464736f6c634300081e0033",
  "linkReferences": {},
  "deployedLinkReferences": {}
}